{
  "contractName": "Dapp3",
  "abi": [
    {
      "inputs": [],
      "stateMutability": "nonpayable",
      "type": "constructor"
    },
    {
      "inputs": [],
      "name": "adde",
      "outputs": [
        {
          "internalType": "uint256",
          "name": "",
          "type": "uint256"
        }
      ],
      "stateMutability": "view",
      "type": "function"
    },
    {
      "inputs": [],
      "name": "addedfrdfd",
      "outputs": [
        {
          "internalType": "uint256",
          "name": "",
          "type": "uint256"
        }
      ],
      "stateMutability": "view",
      "type": "function"
    },
    {
      "inputs": [
        {
          "internalType": "uint256",
          "name": "",
          "type": "uint256"
        }
      ],
      "name": "allPlayers",
      "outputs": [
        {
          "internalType": "address",
          "name": "add",
          "type": "address"
        },
        {
          "internalType": "uint256",
          "name": "choice",
          "type": "uint256"
        }
      ],
      "stateMutability": "view",
      "type": "function"
    },
    {
      "inputs": [],
      "name": "playersCount",
      "outputs": [
        {
          "internalType": "uint256",
          "name": "",
          "type": "uint256"
        }
      ],
      "stateMutability": "view",
      "type": "function"
    },
    {
      "inputs": [],
      "name": "trueChoice",
      "outputs": [
        {
          "internalType": "uint256",
          "name": "",
          "type": "uint256"
        }
      ],
      "stateMutability": "view",
      "type": "function"
    },
    {
      "inputs": [],
      "name": "winPrice",
      "outputs": [
        {
          "internalType": "uint256",
          "name": "",
          "type": "uint256"
        }
      ],
      "stateMutability": "view",
      "type": "function"
    },
    {
      "inputs": [],
      "name": "winnerplayersCount",
      "outputs": [
        {
          "internalType": "uint256",
          "name": "",
          "type": "uint256"
        }
      ],
      "stateMutability": "view",
      "type": "function"
    },
    {
      "inputs": [
        {
          "internalType": "uint256",
          "name": "",
          "type": "uint256"
        }
      ],
      "name": "winners",
      "outputs": [
        {
          "internalType": "address payable",
          "name": "",
          "type": "address"
        }
      ],
      "stateMutability": "view",
      "type": "function"
    },
    {
      "inputs": [
        {
          "internalType": "uint256",
          "name": "",
          "type": "uint256"
        }
      ],
      "name": "winnnerlist",
      "outputs": [
        {
          "internalType": "address",
          "name": "add",
          "type": "address"
        },
        {
          "internalType": "uint256",
          "name": "choice",
          "type": "uint256"
        }
      ],
      "stateMutability": "view",
      "type": "function"
    },
    {
      "inputs": [],
      "name": "ww",
      "outputs": [
        {
          "internalType": "address",
          "name": "",
          "type": "address"
        }
      ],
      "stateMutability": "view",
      "type": "function"
    },
    {
      "inputs": [],
      "name": "getBalance",
      "outputs": [
        {
          "internalType": "uint256",
          "name": "",
          "type": "uint256"
        }
      ],
      "stateMutability": "view",
      "type": "function"
    },
    {
      "inputs": [
        {
          "internalType": "address",
          "name": "a",
          "type": "address"
        }
      ],
      "name": "sendEthtoAcc",
      "outputs": [],
      "stateMutability": "nonpayable",
      "type": "function"
    },
    {
      "inputs": [
        {
          "internalType": "uint256",
          "name": "a",
          "type": "uint256"
        }
      ],
      "name": "payEth",
      "outputs": [
        {
          "internalType": "address",
          "name": "",
          "type": "address"
        }
      ],
      "stateMutability": "payable",
      "type": "function"
    },
    {
      "inputs": [
        {
          "internalType": "uint256",
          "name": "dummy",
          "type": "uint256"
        }
      ],
      "name": "chooseWinner",
      "outputs": [],
      "stateMutability": "nonpayable",
      "type": "function"
    },
    {
      "inputs": [],
      "name": "sendEthToWinner",
      "outputs": [],
      "stateMutability": "nonpayable",
      "type": "function"
    }
  ],
  "bytecode": "0x6080604052600060035534801561001557600080fd5b5033600a60006101000a81548173ffffffffffffffffffffffffffffffffffffffff021916908373ffffffffffffffffffffffffffffffffffffffff160217905550610e56806100666000396000f3fe6080604052600436106100e85760003560e01c80638caa72971161008a578063a49f6b9011610059578063a49f6b90146102d8578063afc275af14610303578063db51353a1461032e578063f96afe871461036c576100e8565b80638caa7297146102175780639e2f04bf14610247578063a2fb117514610270578063a3f67d6d146102ad576100e8565b80632c4a906f116100c65780632c4a906f1461017f5780632def7b74146101aa57806344dc63d1146101d557806375ba577e14610200576100e8565b80630544ce5e146100ed57806312065fe01461012b578063194027dc14610156575b600080fd5b3480156100f957600080fd5b50610114600480360381019061010f9190610a65565b610397565b604051610122929190610ae2565b60405180910390f35b34801561013757600080fd5b506101406103eb565b60405161014d9190610b0b565b60405180910390f35b34801561016257600080fd5b5061017d60048036038101906101789190610b52565b610483565b005b34801561018b57600080fd5b50610194610540565b6040516101a19190610b0b565b60405180910390f35b3480156101b657600080fd5b506101bf610546565b6040516101cc9190610b0b565b60405180910390f35b3480156101e157600080fd5b506101ea61054c565b6040516101f79190610b0b565b60405180910390f35b34801561020c57600080fd5b50610215610552565b005b610231600480360381019061022c9190610a65565b61069e565b60405161023e9190610b7f565b60405180910390f35b34801561025357600080fd5b5061026e60048036038101906102699190610a65565b6107e3565b005b34801561027c57600080fd5b5061029760048036038101906102929190610a65565b61095f565b6040516102a49190610bbb565b60405180910390f35b3480156102b957600080fd5b506102c261099e565b6040516102cf9190610b0b565b60405180910390f35b3480156102e457600080fd5b506102ed6109a4565b6040516102fa9190610b0b565b60405180910390f35b34801561030f57600080fd5b506103186109aa565b6040516103259190610b7f565b60405180910390f35b34801561033a57600080fd5b5061035560048036038101906103509190610a65565b6109d0565b604051610363929190610ae2565b60405180910390f35b34801561037857600080fd5b50610381610a24565b60405161038e9190610b0b565b60405180910390f35b600481815481106103a757600080fd5b90600052602060002090600202016000915090508060000160009054906101000a900473ffffffffffffffffffffffffffffffffffffffff16908060010154905082565b60003373ffffffffffffffffffffffffffffffffffffffff16600a60009054906101000a900473ffffffffffffffffffffffffffffffffffffffff1673ffffffffffffffffffffffffffffffffffffffff161461047d576040517f08c379a000000000000000000000000000000000000000000000000000000000815260040161047490610c33565b60405180910390fd5b47905090565b600560088190555080600660006101000a81548173ffffffffffffffffffffffffffffffffffffffff021916908373ffffffffffffffffffffffffffffffffffffffff160217905550600660009054906101000a900473ffffffffffffffffffffffffffffffffffffffff1673ffffffffffffffffffffffffffffffffffffffff166108fc670de0b6b3a76400009081150290604051600060405180830381858888f1935050505015801561053c573d6000803e3d6000fd5b5050565b60085481565b60025481565b60095481565b60025460026000546105649190610c82565b61056e9190610d0b565b60038190555060005b60058054905081101561069b576005818154811061059857610597610d3c565b5b906000526020600020906002020160000160009054906101000a900473ffffffffffffffffffffffffffffffffffffffff16600660006101000a81548173ffffffffffffffffffffffffffffffffffffffff021916908373ffffffffffffffffffffffffffffffffffffffff160217905550600660009054906101000a900473ffffffffffffffffffffffffffffffffffffffff1673ffffffffffffffffffffffffffffffffffffffff166108fc670de0b6b3a764000060035461065c9190610c82565b9081150290604051600060405180830381858888f19350505050158015610687573d6000803e3d6000fd5b50808061069390610d6b565b915050610577565b50565b60006729a2241af62c000034146106ea576040517f08c379a00000000000000000000000000000000000000000000000000000000081526004016106e190610e00565b60405180910390fd5b8160088190555033600760006101000a81548173ffffffffffffffffffffffffffffffffffffffff021916908373ffffffffffffffffffffffffffffffffffffffff160217905550600460405180604001604052803373ffffffffffffffffffffffffffffffffffffffff16815260200184815250908060018154018082558091505060019003906000526020600020906002020160009091909190915060008201518160000160006101000a81548173ffffffffffffffffffffffffffffffffffffffff021916908373ffffffffffffffffffffffffffffffffffffffff160217905550602082015181600101555050339050919050565b806001819055506000805490505b60048054905081101561095b576004818154811061081257610811610d3c565b5b9060005260206000209060020201600101546009819055506001600482815481106108405761083f610d3c565b5b9060005260206000209060020201600101541415610931576002600081548092919061086b90610d6b565b919050555060056004828154811061088657610885610d3c565b5b906000526020600020906002020190806001815401808255809150506001900390600052602060002090600202016000909190919091506000820160009054906101000a900473ffffffffffffffffffffffffffffffffffffffff168160000160006101000a81548173ffffffffffffffffffffffffffffffffffffffff021916908373ffffffffffffffffffffffffffffffffffffffff1602179055506001820154816001015550505b60008081548092919061094390610d6b565b9190505550808061095390610d6b565b9150506107f1565b5050565b600b818154811061096f57600080fd5b906000526020600020016000915054906101000a900473ffffffffffffffffffffffffffffffffffffffff1681565b60005481565b60015481565b600760009054906101000a900473ffffffffffffffffffffffffffffffffffffffff1681565b600581815481106109e057600080fd5b90600052602060002090600202016000915090508060000160009054906101000a900473ffffffffffffffffffffffffffffffffffffffff16908060010154905082565b60035481565b600080fd5b6000819050919050565b610a4281610a2f565b8114610a4d57600080fd5b50565b600081359050610a5f81610a39565b92915050565b600060208284031215610a7b57610a7a610a2a565b5b6000610a8984828501610a50565b91505092915050565b600073ffffffffffffffffffffffffffffffffffffffff82169050919050565b6000610abd82610a92565b9050919050565b610acd81610ab2565b82525050565b610adc81610a2f565b82525050565b6000604082019050610af76000830185610ac4565b610b046020830184610ad3565b9392505050565b6000602082019050610b206000830184610ad3565b92915050565b610b2f81610ab2565b8114610b3a57600080fd5b50565b600081359050610b4c81610b26565b92915050565b600060208284031215610b6857610b67610a2a565b5b6000610b7684828501610b3d565b91505092915050565b6000602082019050610b946000830184610ac4565b92915050565b6000610ba582610a92565b9050919050565b610bb581610b9a565b82525050565b6000602082019050610bd06000830184610bac565b92915050565b600082825260208201905092915050565b7f796f7520617265206e6f74206d616e6167657200000000000000000000000000600082015250565b6000610c1d601383610bd6565b9150610c2882610be7565b602082019050919050565b60006020820190508181036000830152610c4c81610c10565b9050919050565b7f4e487b7100000000000000000000000000000000000000000000000000000000600052601160045260246000fd5b6000610c8d82610a2f565b9150610c9883610a2f565b9250817fffffffffffffffffffffffffffffffffffffffffffffffffffffffffffffffff0483118215151615610cd157610cd0610c53565b5b828202905092915050565b7f4e487b7100000000000000000000000000000000000000000000000000000000600052601260045260246000fd5b6000610d1682610a2f565b9150610d2183610a2f565b925082610d3157610d30610cdc565b5b828204905092915050565b7f4e487b7100000000000000000000000000000000000000000000000000000000600052603260045260246000fd5b6000610d7682610a2f565b91507fffffffffffffffffffffffffffffffffffffffffffffffffffffffffffffffff821415610da957610da8610c53565b5b600182019050919050565b7f496e636f727265637420616d6f756e7400000000000000000000000000000000600082015250565b6000610dea601083610bd6565b9150610df582610db4565b602082019050919050565b60006020820190508181036000830152610e1981610ddd565b905091905056fea2646970667358221220f1c1e019fc12f7dd7b47aebfd28a08d70b958123825806e91aa4c34d7e53619464736f6c634300080b0033",
  "immutableReferences": {},
  "source": "// SPDX-License-Identifier: GPL-3.0\n\n//21 to 24\n\npragma solidity >=0.8.2 <0.9.0;\n\nstruct Player {\n\n    address add;\n\n    uint256 choice;\n\n}\n\n \n\ncontract Dapp3 {\n\n    uint256 public playersCount;\n\n    uint256 public trueChoice;\n\n    uint256 public winnerplayersCount;\n\n    uint256 public winPrice =0 ether;\n\n \n\n    Player[] public allPlayers;\n\n    Player[] public winnnerlist;\n\n \n\n    address payable user;\n\n    address public ww;\n\n    uint256 public adde;\n\n    uint256 public addedfrdfd;\n\n    address owner;\n\n    address payable[] public winners;\n\n \n\n    constructor() {\n\n        owner = msg.sender;\n\n    }\n\n \n\n \n\n \n\n    function getBalance() public view returns (uint256) {\n\n        require(owner == msg.sender, \"you are not manager\");\n\n        return address(this).balance;\n\n    }\n\n \n\n    function sendEthtoAcc(address a) public {\n\n        adde = 5;\n\n        user = payable(a);\n\n        user.transfer(1 ether);\n\n    }\n\n \n\n \n\n// payEth will let player to pay contract for betting\n\n// the amount we can fix from front-end\n\n    function payEth(uint256 a) public payable returns (address) {\n\n        require(msg.value == 3 ether, \"Incorrect amount\"); // this will allow user to send only specific amount\n\n        adde = a;\n\n        //ww = address(this);\n\n        ww = msg.sender;\n\n        allPlayers.push(Player(msg.sender, a));\n\n        return msg.sender;\n\n    }\n\n \n\n// this function will filter out true choices and save it to winner list\n\n    function chooseWinner( uint256 dummy) public {\n\n        trueChoice = dummy;\n\n        for (uint256 i = playersCount; i < allPlayers.length; i++) {\n\n            addedfrdfd = allPlayers[i].choice;\n\n            if (allPlayers[i].choice == 1) {\n\n                winnerplayersCount++;  // will Count of right predictor\n\n                winnnerlist.push(allPlayers[i]); // will add right predictor to winnerlist\n\n            }\n\n            playersCount++;\n\n        }\n\n    }\n\n// this function will send eth to the winners\n\n    function sendEthToWinner() public {\n\n        winPrice  = ((playersCount*2)/winnerplayersCount)  ;\n\n        for (uint256 i = 0; i < winnnerlist.length; i++) {\n\n            user = payable(winnnerlist[i].add);\n\n            user.transfer(winPrice*1000000000000000000); // wei\n\n        }\n\n    }\n\n}",
  "sourcePath": "D:\\dappTwo\\ks\\contracts\\Lottery.sol",
  "compiler": {
    "name": "solc",
    "version": "0.8.11+commit.d7f03943.Emscripten.clang"
  },
  "schemaVersion": "3.4.15",
  "updatedAt": "2023-08-24T05:54:04.293Z",
  "devdoc": {
    "kind": "dev",
    "methods": {},
    "version": 1
  },
  "userdoc": {
    "kind": "user",
    "methods": {},
    "version": 1
  }
}