{
  "contractName": "Lottery",
  "abi": [
    {
      "inputs": [],
      "stateMutability": "nonpayable",
      "type": "constructor"
    },
    {
      "inputs": [],
      "name": "adde",
      "outputs": [
        {
          "internalType": "uint256",
          "name": "",
          "type": "uint256"
        }
      ],
      "stateMutability": "view",
      "type": "function",
      "constant": true
    },
    {
      "inputs": [],
      "name": "addedfrdfd",
      "outputs": [
        {
          "internalType": "uint256",
          "name": "",
          "type": "uint256"
        }
      ],
      "stateMutability": "view",
      "type": "function",
      "constant": true
    },
    {
      "inputs": [
        {
          "internalType": "uint256",
          "name": "",
          "type": "uint256"
        }
      ],
      "name": "allPlayers",
      "outputs": [
        {
          "internalType": "address",
          "name": "add",
          "type": "address"
        },
        {
          "internalType": "uint256",
          "name": "choice",
          "type": "uint256"
        }
      ],
      "stateMutability": "view",
      "type": "function",
      "constant": true
    },
    {
      "inputs": [],
      "name": "playersCount",
      "outputs": [
        {
          "internalType": "uint256",
          "name": "",
          "type": "uint256"
        }
      ],
      "stateMutability": "view",
      "type": "function",
      "constant": true
    },
    {
      "inputs": [],
      "name": "trueChoice",
      "outputs": [
        {
          "internalType": "uint256",
          "name": "",
          "type": "uint256"
        }
      ],
      "stateMutability": "view",
      "type": "function",
      "constant": true
    },
    {
      "inputs": [],
      "name": "winPrice",
      "outputs": [
        {
          "internalType": "uint256",
          "name": "",
          "type": "uint256"
        }
      ],
      "stateMutability": "view",
      "type": "function",
      "constant": true
    },
    {
      "inputs": [],
      "name": "winnerplayersCount",
      "outputs": [
        {
          "internalType": "uint256",
          "name": "",
          "type": "uint256"
        }
      ],
      "stateMutability": "view",
      "type": "function",
      "constant": true
    },
    {
      "inputs": [
        {
          "internalType": "uint256",
          "name": "",
          "type": "uint256"
        }
      ],
      "name": "winners",
      "outputs": [
        {
          "internalType": "address payable",
          "name": "",
          "type": "address"
        }
      ],
      "stateMutability": "view",
      "type": "function",
      "constant": true
    },
    {
      "inputs": [
        {
          "internalType": "uint256",
          "name": "",
          "type": "uint256"
        }
      ],
      "name": "winnnerlist",
      "outputs": [
        {
          "internalType": "address",
          "name": "add",
          "type": "address"
        },
        {
          "internalType": "uint256",
          "name": "choice",
          "type": "uint256"
        }
      ],
      "stateMutability": "view",
      "type": "function",
      "constant": true
    },
    {
      "inputs": [],
      "name": "ww",
      "outputs": [
        {
          "internalType": "address",
          "name": "",
          "type": "address"
        }
      ],
      "stateMutability": "view",
      "type": "function",
      "constant": true
    },
    {
      "inputs": [],
      "name": "getBalance",
      "outputs": [
        {
          "internalType": "uint256",
          "name": "",
          "type": "uint256"
        }
      ],
      "stateMutability": "view",
      "type": "function",
      "constant": true
    },
    {
      "inputs": [
        {
          "internalType": "address",
          "name": "a",
          "type": "address"
        }
      ],
      "name": "sendEthtoAcc",
      "outputs": [],
      "stateMutability": "nonpayable",
      "type": "function"
    },
    {
      "inputs": [
        {
          "internalType": "uint256",
          "name": "a",
          "type": "uint256"
        }
      ],
      "name": "payEth",
      "outputs": [
        {
          "internalType": "address",
          "name": "",
          "type": "address"
        }
      ],
      "stateMutability": "payable",
      "type": "function",
      "payable": true
    },
    {
      "inputs": [
        {
          "internalType": "uint256",
          "name": "dummy",
          "type": "uint256"
        }
      ],
      "name": "chooseWinner",
      "outputs": [
        {
          "components": [
            {
              "internalType": "address",
              "name": "add",
              "type": "address"
            },
            {
              "internalType": "uint256",
              "name": "choice",
              "type": "uint256"
            }
          ],
          "internalType": "struct Player[]",
          "name": "",
          "type": "tuple[]"
        }
      ],
      "stateMutability": "nonpayable",
      "type": "function"
    },
    {
      "inputs": [],
      "name": "sendEthToWinner",
      "outputs": [],
      "stateMutability": "nonpayable",
      "type": "function"
    },
    {
      "inputs": [],
      "name": "getAllPalyers",
      "outputs": [
        {
          "components": [
            {
              "internalType": "address",
              "name": "add",
              "type": "address"
            },
            {
              "internalType": "uint256",
              "name": "choice",
              "type": "uint256"
            }
          ],
          "internalType": "struct Player[]",
          "name": "",
          "type": "tuple[]"
        }
      ],
      "stateMutability": "view",
      "type": "function",
      "constant": true
    }
  ],
  "bytecode": "0x6080604052600060035534801561001557600080fd5b5033600a60006101000a81548173ffffffffffffffffffffffffffffffffffffffff021916908373ffffffffffffffffffffffffffffffffffffffff16021790555061113b806100666000396000f3fe6080604052600436106100f35760003560e01c80639e2f04bf1161008a578063afc275af11610059578063afc275af14610322578063c6767b8c1461034d578063db51353a14610378578063f96afe87146103b6576100f3565b80639e2f04bf14610252578063a2fb11751461028f578063a3f67d6d146102cc578063a49f6b90146102f7576100f3565b80632def7b74116100c65780632def7b74146101b557806344dc63d1146101e057806375ba577e1461020b5780638caa729714610222576100f3565b80630544ce5e146100f857806312065fe014610136578063194027dc146101615780632c4a906f1461018a575b600080fd5b34801561010457600080fd5b5061011f600480360381019061011a9190610c2c565b6103e1565b60405161012d929190610ca9565b60405180910390f35b34801561014257600080fd5b5061014b610435565b6040516101589190610cd2565b60405180910390f35b34801561016d57600080fd5b5061018860048036038101906101839190610d19565b6104cd565b005b34801561019657600080fd5b5061019f61058a565b6040516101ac9190610cd2565b60405180910390f35b3480156101c157600080fd5b506101ca610590565b6040516101d79190610cd2565b60405180910390f35b3480156101ec57600080fd5b506101f5610596565b6040516102029190610cd2565b60405180910390f35b34801561021757600080fd5b5061022061059c565b005b61023c60048036038101906102379190610c2c565b6106e8565b6040516102499190610d46565b60405180910390f35b34801561025e57600080fd5b5061027960048036038101906102749190610c2c565b61082d565b6040516102869190610e5d565b60405180910390f35b34801561029b57600080fd5b506102b660048036038101906102b19190610c2c565b610a67565b6040516102c39190610ea0565b60405180910390f35b3480156102d857600080fd5b506102e1610aa6565b6040516102ee9190610cd2565b60405180910390f35b34801561030357600080fd5b5061030c610aac565b6040516103199190610cd2565b60405180910390f35b34801561032e57600080fd5b50610337610ab2565b6040516103449190610d46565b60405180910390f35b34801561035957600080fd5b50610362610ad8565b60405161036f9190610e5d565b60405180910390f35b34801561038457600080fd5b5061039f600480360381019061039a9190610c2c565b610b97565b6040516103ad929190610ca9565b60405180910390f35b3480156103c257600080fd5b506103cb610beb565b6040516103d89190610cd2565b60405180910390f35b600481815481106103f157600080fd5b90600052602060002090600202016000915090508060000160009054906101000a900473ffffffffffffffffffffffffffffffffffffffff16908060010154905082565b60003373ffffffffffffffffffffffffffffffffffffffff16600a60009054906101000a900473ffffffffffffffffffffffffffffffffffffffff1673ffffffffffffffffffffffffffffffffffffffff16146104c7576040517f08c379a00000000000000000000000000000000000000000000000000000000081526004016104be90610f18565b60405180910390fd5b47905090565b600560088190555080600660006101000a81548173ffffffffffffffffffffffffffffffffffffffff021916908373ffffffffffffffffffffffffffffffffffffffff160217905550600660009054906101000a900473ffffffffffffffffffffffffffffffffffffffff1673ffffffffffffffffffffffffffffffffffffffff166108fc670de0b6b3a76400009081150290604051600060405180830381858888f19350505050158015610586573d6000803e3d6000fd5b5050565b60085481565b60025481565b60095481565b60025460026000546105ae9190610f67565b6105b89190610ff0565b60038190555060005b6005805490508110156106e557600581815481106105e2576105e1611021565b5b906000526020600020906002020160000160009054906101000a900473ffffffffffffffffffffffffffffffffffffffff16600660006101000a81548173ffffffffffffffffffffffffffffffffffffffff021916908373ffffffffffffffffffffffffffffffffffffffff160217905550600660009054906101000a900473ffffffffffffffffffffffffffffffffffffffff1673ffffffffffffffffffffffffffffffffffffffff166108fc670de0b6b3a76400006003546106a69190610f67565b9081150290604051600060405180830381858888f193505050501580156106d1573d6000803e3d6000fd5b5080806106dd90611050565b9150506105c1565b50565b60006729a2241af62c00003414610734576040517f08c379a000000000000000000000000000000000000000000000000000000000815260040161072b906110e5565b60405180910390fd5b8160088190555033600760006101000a81548173ffffffffffffffffffffffffffffffffffffffff021916908373ffffffffffffffffffffffffffffffffffffffff160217905550600460405180604001604052803373ffffffffffffffffffffffffffffffffffffffff16815260200184815250908060018154018082558091505060019003906000526020600020906002020160009091909190915060008201518160000160006101000a81548173ffffffffffffffffffffffffffffffffffffffff021916908373ffffffffffffffffffffffffffffffffffffffff160217905550602082015181600101555050339050919050565b6060816001819055506000805490505b6004805490508110156109a7576004818154811061085e5761085d611021565b5b90600052602060002090600202016001015460098190555060016004828154811061088c5761088b611021565b5b906000526020600020906002020160010154141561097d57600260008154809291906108b790611050565b91905055506005600482815481106108d2576108d1611021565b5b906000526020600020906002020190806001815401808255809150506001900390600052602060002090600202016000909190919091506000820160009054906101000a900473ffffffffffffffffffffffffffffffffffffffff168160000160006101000a81548173ffffffffffffffffffffffffffffffffffffffff021916908373ffffffffffffffffffffffffffffffffffffffff1602179055506001820154816001015550505b60008081548092919061098f90611050565b9190505550808061099f90611050565b91505061083d565b506005805480602002602001604051908101604052809291908181526020016000905b82821015610a5c57838290600052602060002090600202016040518060400160405290816000820160009054906101000a900473ffffffffffffffffffffffffffffffffffffffff1673ffffffffffffffffffffffffffffffffffffffff1673ffffffffffffffffffffffffffffffffffffffff168152602001600182015481525050815260200190600101906109ca565b505050509050919050565b600b8181548110610a7757600080fd5b906000526020600020016000915054906101000a900473ffffffffffffffffffffffffffffffffffffffff1681565b60005481565b60015481565b600760009054906101000a900473ffffffffffffffffffffffffffffffffffffffff1681565b60606004805480602002602001604051908101604052809291908181526020016000905b82821015610b8e57838290600052602060002090600202016040518060400160405290816000820160009054906101000a900473ffffffffffffffffffffffffffffffffffffffff1673ffffffffffffffffffffffffffffffffffffffff1673ffffffffffffffffffffffffffffffffffffffff16815260200160018201548152505081526020019060010190610afc565b50505050905090565b60058181548110610ba757600080fd5b90600052602060002090600202016000915090508060000160009054906101000a900473ffffffffffffffffffffffffffffffffffffffff16908060010154905082565b60035481565b600080fd5b6000819050919050565b610c0981610bf6565b8114610c1457600080fd5b50565b600081359050610c2681610c00565b92915050565b600060208284031215610c4257610c41610bf1565b5b6000610c5084828501610c17565b91505092915050565b600073ffffffffffffffffffffffffffffffffffffffff82169050919050565b6000610c8482610c59565b9050919050565b610c9481610c79565b82525050565b610ca381610bf6565b82525050565b6000604082019050610cbe6000830185610c8b565b610ccb6020830184610c9a565b9392505050565b6000602082019050610ce76000830184610c9a565b92915050565b610cf681610c79565b8114610d0157600080fd5b50565b600081359050610d1381610ced565b92915050565b600060208284031215610d2f57610d2e610bf1565b5b6000610d3d84828501610d04565b91505092915050565b6000602082019050610d5b6000830184610c8b565b92915050565b600081519050919050565b600082825260208201905092915050565b6000819050602082019050919050565b610d9681610c79565b82525050565b610da581610bf6565b82525050565b604082016000820151610dc16000850182610d8d565b506020820151610dd46020850182610d9c565b50505050565b6000610de68383610dab565b60408301905092915050565b6000602082019050919050565b6000610e0a82610d61565b610e148185610d6c565b9350610e1f83610d7d565b8060005b83811015610e50578151610e378882610dda565b9750610e4283610df2565b925050600181019050610e23565b5085935050505092915050565b60006020820190508181036000830152610e778184610dff565b905092915050565b6000610e8a82610c59565b9050919050565b610e9a81610e7f565b82525050565b6000602082019050610eb56000830184610e91565b92915050565b600082825260208201905092915050565b7f796f7520617265206e6f74206d616e6167657200000000000000000000000000600082015250565b6000610f02601383610ebb565b9150610f0d82610ecc565b602082019050919050565b60006020820190508181036000830152610f3181610ef5565b9050919050565b7f4e487b7100000000000000000000000000000000000000000000000000000000600052601160045260246000fd5b6000610f7282610bf6565b9150610f7d83610bf6565b9250817fffffffffffffffffffffffffffffffffffffffffffffffffffffffffffffffff0483118215151615610fb657610fb5610f38565b5b828202905092915050565b7f4e487b7100000000000000000000000000000000000000000000000000000000600052601260045260246000fd5b6000610ffb82610bf6565b915061100683610bf6565b92508261101657611015610fc1565b5b828204905092915050565b7f4e487b7100000000000000000000000000000000000000000000000000000000600052603260045260246000fd5b600061105b82610bf6565b91507fffffffffffffffffffffffffffffffffffffffffffffffffffffffffffffffff82141561108e5761108d610f38565b5b600182019050919050565b7f496e636f727265637420616d6f756e7400000000000000000000000000000000600082015250565b60006110cf601083610ebb565b91506110da82611099565b602082019050919050565b600060208201905081810360008301526110fe816110c2565b905091905056fea2646970667358221220c42fc12523e61e60a358a1841fa80acb215bd7e3686c77eb1a5fd63d4332ca5364736f6c634300080b0033",
  "immutableReferences": {},
  "source": "// SPDX-License-Identifier: GPL-3.0\n\n//21 to 24\n\npragma solidity >=0.8.2 <0.9.0;\n\nstruct Player {\n    address add;\n    uint256 choice;\n}\n\ncontract Lottery {\n    uint256 public playersCount;\n\n    uint256 public trueChoice;\n\n    uint256 public winnerplayersCount;\n\n    uint256 public winPrice = 0 ether;\n\n    Player[] public allPlayers;\n\n    Player[] public winnnerlist;\n\n    address payable user;\n\n    address public ww;\n\n    uint256 public adde;\n\n    uint256 public addedfrdfd;\n\n    address owner;\n\n    address payable[] public winners;\n\n    constructor() {\n        owner = msg.sender;\n    }\n\n    function getBalance() public view returns (uint256) {\n        require(owner == msg.sender, \"you are not manager\");\n\n        return address(this).balance;\n    }\n\n    function sendEthtoAcc(address a) public {\n        adde = 5;\n\n        user = payable(a);\n\n        user.transfer(1 ether);\n    }\n\n    // payEth will let player to pay contract for betting\n\n    // the amount we can fix from front-end\n\n    function payEth(uint256 a) public payable returns (address) {\n        require(msg.value == 3 ether, \"Incorrect amount\"); // this will allow user to send only specific amount\n\n        adde = a;\n\n        //ww = address(this);\n\n        ww = msg.sender;\n\n        allPlayers.push(Player(msg.sender, a));\n\n        return msg.sender;\n    }\n\n    // this function will filter out true choices and save it to winner list\n\n    function chooseWinner(uint256 dummy) public returns(Player[] memory) {\n        trueChoice = dummy;\n\n        for (uint256 i = playersCount; i < allPlayers.length; i++) {\n            addedfrdfd = allPlayers[i].choice;\n\n            if (allPlayers[i].choice == 1) {\n                winnerplayersCount++; // will Count of right predictor\n\n                winnnerlist.push(allPlayers[i]); // will add right predictor to winnerlist\n            }\n\n            playersCount++;\n        }\n        return winnnerlist;\n    }\n\n    // this function will send eth to the winners\n\n    function sendEthToWinner() public {\n        winPrice = ((playersCount * 2) / winnerplayersCount);\n\n        for (uint256 i = 0; i < winnnerlist.length; i++) {\n            user = payable(winnnerlist[i].add);\n\n            user.transfer(winPrice * 1000000000000000000); // wei\n        }\n    }\n\n    function getAllPalyers() public view returns (Player[] memory) {\n        return allPlayers;\n    }\n}\n",
  "sourcePath": "D:\\dappTwo\\ks\\contracts\\Lottery.sol",
  "compiler": {
    "name": "solc",
    "version": "0.8.11+commit.d7f03943.Emscripten.clang"
  },
  "schemaVersion": "3.4.15",
  "updatedAt": "2023-08-31T08:32:58.475Z",
  "networkType": "ethereum",
  "devdoc": {
    "kind": "dev",
    "methods": {},
    "version": 1
  },
  "userdoc": {
    "kind": "user",
    "methods": {},
    "version": 1
  }
}